:100000000C949B000C94AD000C94AD000C94AD00CE
:100010000C94AD000C94AD000C94AD000C94AD00AC
:100020000C94AD000C94AD000C94AF000C940F0137
:100030000C94AD000C94AD000C94AD000C94AD008C
:100040000C94AD000C94AD000C94AD000C94AD007C
:100050000C94AD000C94AD000C94AD000C94AD006C
:100060000C94AD000C94AD000C94AD000C94AD005C
:100070000C94AD000C94AD000C94AD000C94AD004C
:100080000C94AD000C94AD000C94AD000C94AD003C
:100090000C94AD000C94AD000C94AD000C94AD002C
:1000A0000C94AD000C94AD000C94AD00120348000C
:1000B0006900620069007300630075007300160335
:1000C00048006F0072006E00650064004F0077000A
:1000D0006C005F000403090409024B00020100C028
:1000E00064080B0002020200000904000001020281
:1000F000000005240020010524010201042402005F
:1001000005240600010705810310001809040100F9
:10011000020A0000000705820240000007050302F2
:1001200040000012010002EF020140091207000026
:1001300001010200010011241FBECFEFDAE0DEBF93
:10014000CDBF21E0A0E0B1E001C01D92A031B20717
:10015000E1F70E9416030C945E030C9400001F92BA
:100160001FB61F9211248F938091E10083FF23C05B
:100170008091E100877F8093E1001092E9008091F7
:10018000EA0081608093EA008091EA008E7F80938C
:10019000EA008091EB008E7F8093EB008091EB0072
:1001A00081608093EB001092EC0082E38093ED007D
:1001B0008CE08093F0008F911F901FBE1F901895C8
:1001C0008AE682BF82E189BD09B400FEFDCF0895B1
:1001D0008091D70081608093D7008091D80080689B
:1001E0008093D8008091D80080618093D80080915E
:1001F000D8008F7D8093D8008091E0008E7F80931F
:10020000E00088E08093E20008958091E80080FF9C
:10021000FCCF8091E8008E778093E80008951F92CC
:100220000F920FB60F921124CF92DF92EF92FF92AE
:100230002F933F934F935F936F937F938F939F93EE
:10024000AF93BF93EF93FF931092E9008091E80082
:1002500083FF3FC08091F1008091F1009091F10007
:100260004091F100292F342FA9012091F100209114
:10027000F1002091F1006091F1003091E800377FAA
:100280003093E800893009F4CEC0362F8A3060F40C
:10029000853009F452C0863009F45EC0803069F0C0
:1002A0008091EB00806222C1803209F422C1825227
:1002B0008230B0F70E9405010CC08091E80080FFF9
:1002C000FCCF20303207A1F58091E8008E77809333
:1002D000E8008091E80082FF11C18091F1009091C7
:1002E000F100C090F100EC2C6C018091F100F82E2F
:1002F0008091E8008B778093E8000E94050180EBF5
:10030000C81684E0D806E104F10409F0F7C087E7D5
:1003100097E7809300089093010888E198E00FB672
:10032000F894A895809360000FBE90936000FFCF73
:10033000215030401092F100C4CF9F779093E3009A
:100340000E9405018091E80080FFFCCF8091E300CE
:1003500080688093E300BDCF852F90E082309105C7
:10036000D1F08330910541F0019709F099CF62E116
:1003700070E083E291E013C0842F90E04130F9F007
:100380008230910509F1892B21F18091EB00806287
:100390008093EB0085CF6BE470E088ED90E00097F0
:1003A00009F47ECFA9016217730708F4AB0140304E
:1003B000540719F06217730788F020E015C066E152
:1003C00070E08EEB90E0EBCF62E170E08CEA90E0C1
:1003D000E6CF64E070E084ED90E0E1CF21E0642FAF
:1003E0006F7370E0672B49F74030540721F42030D9
:1003F00009F46FCF5FCF3091E80030FFFCCFBC0134
:10040000605C7F4FFC01349101963093F1004150C4
:10041000504019F086179707A9F73091E8003E770A
:100420003093E800E1CF41305040F0F109F038CF8F
:100430000E9405018091EA008E608093EA0080911D
:10044000EA00817F8093EA0081E08093E900809157
:10045000EB0081608093EB0081EC8093EC0082E103
:100460008093ED001092F00082E08093E90080918B
:10047000EB0081608093EB0081E88093EC0096E3D1
:100480009093ED001092F00083E08093E90080915A
:10049000EB0081608093EB0080E88093EC00909308
:1004A000ED001092F00015CF0E9405018091EA0046
:1004B0008E608093EA008091EA00817F8093EA0059
:1004C00081E08093E9008091EB008E7F8093EB00C8
:1004D00082E08093E9008091EB008E7F8093EB00B7
:1004E00083E08093E9008091EB008E7F8093EB00A6
:1004F000F0CE2730304009F0D3CEEBCEFF91EF9114
:10050000BF91AF919F918F917F916F915F914F912B
:100510003F912F91FF90EF90DF90CF900F900FBE03
:100520000F901F9018952FB7F89432E03093E900A0
:100530003091E80030FF03C0FC01892B29F42FBF64
:10054000089531969093F1009081903021F0809140
:10055000E80085FDF6CF8091E8008072892B49F490
:100560008091E8008E778093E8008091E80080FF1A
:10057000FCCF8091E8008E778093E800E0CF9FB7B2
:10058000F89422E02093E9002091E80020FF07C0C2
:100590008093F1008091E8008E778093E8009FBF00
:1005A00008959FB7F89483E08093E9008091F2006A
:1005B0009FBF08952FB7F89483E08093E90080915E
:1005C000E80082FF0DC08091F1009091F20091113E
:1005D00005C09091E8009B779093E8002FBF0895A5
:1005E00080E0FCCF2FB7F89433E03093E9003091EE
:1005F000E80032FD02C02FBF0895FC01680F07C05C
:100600008091E80085FF07C08091F1008193862FDB
:100610008E1B8230A8F710828091F2008111EBCFFF
:100620008091E8008B778093E800E5CF7894559A25
:10063000209A5D988FEF99EF20E081509040204004
:10064000E1F700C000000E94E0000E94E8008FEF88
:1006500091EE24E0815090402040E1F700C000007E
:10066000F89488E19FE00FB6F894A8958093600015
:100670000FBE9093600078948FEF93ED20E381504C
:1006800090402040E1F700C00000A8958FEF91EE68
:1006900024E0815090402040E1F700C00000189A0B
:1006A0000E94D102803089F360E180E091E00E94F5
:1006B000F20280E091E00E949302E7CFF894FFCF2E
:00000001FF
