:100000000C949B000C94C2000C94C2000C94C2008F
:100010000C94C2000C94C2000C94C2000C94C20058
:100020000C94C2000C94C2000C94E7000C94830161
:100030000C94C2000C94C2000C94C2000C94C20038
:100040000C94C2000C94C2000C94C2000C94C20028
:100050000C94C2000C94C2000C94C2000C94C20018
:100060000C94C2000C94C2000C94C2000C94C20008
:100070000C94C2000C94C2000C94C2000C94C200F8
:100080000C94C2000C94C2000C94C2000C94C200E8
:100090000C94C2000C94C2000C94C2000C94C200D8
:1000A0000C94C2000C94C2000C94C20012034800CD
:1000B0006900620069007300630075007300160335
:1000C00048006F0072006E00650064004F0077000A
:1000D0006C005F000403090409024B00020100C028
:1000E00064080B0002020200000904000001020281
:1000F000000005240020010524010201042402005F
:1001000005240600010705810310001809040100F9
:10011000020A0000000705820240000007050302F2
:1001200040000012010002EF020140091207000026
:1001300001010200010011241FBECFEFDAE0DEBF93
:10014000CDBF80E820E030E00FB6F89480936100E6
:10015000209361000FBE11E0A0E0B1E0E0E3F8E021
:1001600002C005900D92A432B107D9F721E0A4E2B4
:10017000B1E001C01D92A433B207E1F70E94A003D1
:100180000C9416040C94000081E08093E9008091A7
:10019000EB008E7F8093EB0082E08093E9008091FA
:1001A000EB008E7F8093EB0083E08093E9008091E9
:1001B000EB008E7F8093EB008091EA008E6080934D
:1001C000EA008091EA00817F8093EA0008951F92FF
:1001D0000F920FB60F9211242F933F934F935F937B
:1001E0006F937F938F939F93AF93BF93CF93EF932F
:1001F000FF93C091E9008091E10083FF23C08091CB
:10020000E100877F8093E1001092E9008091EA008D
:1002100081608093EA008091EA008E7F8093EA00FB
:100220008091EB008E7F8093EB008091EB008160EA
:100230008093EB001092EC0082E38093ED008CE061
:100240008093F0008091E10080FF1AC08091E1006E
:100250008E7F8093E1001092E9008091EB008E7F09
:100260008093EB008091EA0081608093EA008091A6
:10027000EA008E7F8093EA000E94C400109207017A
:10028000C093E900FF91EF91CF91BF91AF919F9102
:100290008F917F916F915F914F913F912F910F902F
:1002A0000FBE0F901F9018958AE682BF82E189BD2C
:1002B00009B400FEFDCF08958091D700816080933E
:1002C000D7008091D80080688093D8008091D800B2
:1002D00080618093D8008091D8008F7D8093D80072
:1002E0008091E0008E7F8093E00089E08093E200BF
:1002F00008958091E80080FFFCCF8091E8008E7720
:100300008093E80008951F920F920FB60F92112468
:10031000CF92DF92EF92FF922F933F934F935F9391
:100320006F937F938F939F93AF93BF93CF93EF93ED
:10033000FF93C091E9001092E9008091E80083FFEB
:10034000ABC08091F1002091F1003091F100E0917B
:10035000F1008091F1008091F1008091F1006091B5
:10036000F100962F5091E800577F5093E80020321B
:1003700009F432C108F055C0432F5E2F263009F42E
:10038000BAC060F4203009F469C0253009F476C0A1
:100390008091EB0080628093EB007EC02930C1F732
:1003A0004130504008F413C199F70E9479018091BF
:1003B000EA008E608093EA008091EA00817F80935A
:1003C000EA0081E08093E9008091EB0081608093F6
:1003D000EB0081EC8093EC0082E18093ED001092C1
:1003E000F00082E08093E9008091EB0081608093CF
:1003F000EB0081E88093EC0092E39093ED00109283
:10040000F00083E08093E9008091EB0081608093AD
:10041000EB0080E88093EC009093ED001092F000E8
:100420003BC0223209F4DCC0233209F4B4C02132CB
:1004300009F0AECF2091E80020FFFCCFE0E0F1E032
:100440008830910510F087E090E080509F4FE817CA
:10045000F90751F021912093F100F9CF2091E800A4
:1004600020FFFCCF009731F48091E8008E778093D5
:10047000E80012C001971092F100F4CF3F7730935B
:10048000E3000E9479018091E80080FFFCCF809119
:10049000E30080688093E3008091E80082FFA3C0BE
:1004A0008091F1009091F100C090F100EC2C6C0172
:1004B0008091F100F82E8091E8008B778093E8001E
:1004C0000E94790180EBC81684E0D806E104FE049E
:1004D00009F089C087E797E78093000890930108A7
:1004E00088E198E00FB6F894A895809360000FBE5D
:1004F00090936000FFCF2E2F30E022303105D9F0ED
:100500002330310549F02130304009F041CF62E11C
:1005100070E023E231E013C0242F30E0413001F1DC
:100520002230310511F1232B29F18091EB008062FB
:100530008093EB002DCF6BE470E028ED30E02030AD
:10054000320709F425CFAC016817790708F4AB012D
:100550004030540719F06817790788F080E015C01B
:1005600066E170E02EEB30E0EACF62E170E02CEA69
:1005700030E0E5CF64E070E024ED30E0E0CF81E0F2
:10058000642F6F7370E0672B49F74030540731F4E4
:10059000803009F481CF0E9479017ECF9091E800EC
:1005A00090FFFCCFB901605C7F4FF90194912F5F00
:1005B0003F4F9093F1004150504019F026173707F4
:1005C000A1F79091E8009E779093E800DECF0E941B
:1005D00079010E94C40060CF079709F0D9CE5CCFA3
:1005E00030930701D8CFC093E900FF91EF91CF91ED
:1005F000BF91AF919F918F917F916F915F914F913B
:100600003F912F91FF90EF90DF90CF900F900FBE12
:100610000F901F901895A82FCB0120E030E040E804
:1006200082179307A40759F122E02093E900209153
:1006300007013091E80030FD02C020FDFACF3FB73E
:10064000F894FC012491A7FD2081203021F04091F5
:10065000E80045FD15C08091E8008072822B49F4C6
:100660008091E8008E778093E8008091E80080FF19
:10067000FCCF8091E8008E778093E8003FBF08951B
:100680000196A11D2093F100DCCF92E09093E90048
:10069000909107012091E80020FD02C090FDFACF63
:1006A0009FB7F8948093F1008091E8008E77809353
:1006B000E8009FBF08959FB7F89483E08093E90016
:1006C0008091F2009FBF08952FB7F89483E0809344
:1006D000E9008091E80082FF0DC08091F1009091C7
:1006E000F200911105C09091E8009B779093E8008B
:1006F0002FBF089580E0FCCF2FB7F89433E03093FC
:10070000E9003091E80032FD02C02FBF0895FC01DE
:10071000680F07C08091E80085FF07C08091F10055
:100720008193862F8E1B8230A8F710828091F20071
:100730008111EBCF8091E8008B778093E800E5CFC3
:10074000F8948FE19EE40197F1F700C000000E9449
:1007500054010E945C0180B38F7080BB2198559A30
:10076000209A5D9880EA8093800080E180938100E8
:1007700080E091E0909387008093860001979093AA
:1007800089008093880090938B0080938A0084B1C5
:10079000806684B98091810081608093810088E1C6
:1007A0009FE00FB6F894A895809360000FBE9093D9
:1007B0006000789481E291E0A0E87C010A2FC4E215
:1007C000D1E05E01CA2EA8958FEF91EE24E0815012
:1007D00090402040E1F700C00000189AB701802F38
:1007E0000E940B03FE0180E111928A95E9F7E8E08F
:1007F000F1E044E251E080819181DC018C9190E054
:10080000228102C0959587952A95E2F7817090E044
:10081000805DDA018D93AD01359681E0E132F80714
:1008200051F7B5018C2D0E940B03CDCFF894FFCF6B
:1008300000960000000008002F0007FFFF2F0006B1
:10084000FFFF23000100002F000501002F0004011D
:04085000000D0A008D
:00000001FF
