:100000000C949B000C94C2000C94C2000C94C2008F
:100010000C94C2000C94C2000C94C2000C94C20058
:100020000C94C2000C94C2000C94C4000C941E01E9
:100030000C94C2000C94C2000C94C2000C94C20038
:100040000C94C2000C94C2000C94C2000C94C20028
:100050000C94C2000C94C2000C94C2000C94C20018
:100060000C94C2000C94C2000C94C2000C94C20008
:100070000C94C2000C94C2000C94C2000C94C200F8
:100080000C94C2000C94C2000C94C2000C94C200E8
:100090000C94C2000C94C2000C94C2000C94C200D8
:1000A0000C94C2000C94C2000C94C20012034800CD
:1000B0006900620069007300630075007300160335
:1000C00048006F0072006E00650064004F0077000A
:1000D0006C005F000403090409024B00020100C028
:1000E00064080B0002020200000904000001020281
:1000F000000005240020010524010201042402005F
:1001000005240600010705810310001809040100F9
:10011000020A0000000705820240000007050302F2
:1001200040000012010002EF020140091207000026
:1001300001010200010011241FBECFEFDAE0DEBF93
:10014000CDBF80E824E030E00FB6F89480936100E2
:10015000209361000FBE11E0A0E0B1E0EEE6F6E012
:1001600002C005900D92AA30B107D9F721E0AAE0AC
:10017000B1E001C01D92AA31B207E1F70E94060367
:100180000C9435030C9400001F921FB61F9211248B
:100190008F938091E10083FF23C08091E100877FEE
:1001A0008093E1001092E9008091EA0081608093E1
:1001B000EA008091EA008E7F8093EA008091EB0054
:1001C0008E7F8093EB008091EB0081608093EB0049
:1001D0001092EC0082E38093ED008CE08093F000BD
:1001E0008F911F901FBE1F9018958AE682BF82E1F3
:1001F00089BD09B400FEFDCF0895E7EDF0E08081F0
:1002000081608083E8ED8081806880838081806167
:10021000808380818F7D8083E0EE80818E7F8083EC
:1002200088E08093E20008958091E80080FFFCCF91
:100230008091E8008E778093E80008951F920F92D6
:100240000FB60F921124CF92DF92EF92FF922F936D
:100250003F934F935F936F937F938F939F93AF934E
:10026000BF93EF93FF931092E9008091E80083FF22
:100270003BC08091F1002091F1008091F10040910C
:10028000F1009091F1009091F1006091F100E09106
:10029000F1007E2F9091E800977F9093E800203244
:1002A00009F416C168F4942F263009F44CC02930A3
:1002B00009F4A9C0253051F08091EB00806205C19E
:1002C00022522230C8F70E9414010EC08F7780930B
:1002D000E3000E9414018091E80080FFFCCF809130
:1002E000E30080688093E3008091E80082FFF5C01E
:1002F0008091F1009091F100C090F100EC2C6C0124
:100300008091F100F82E8091E8008B778093E800CF
:100310000E941401F0EBCF16F4E0DF06E104F104D3
:1003200009F0DBC087E797E7809300089093010806
:1003300088E198E00FB6F894A895809360000FBE0E
:1003400090936000FFCF242F30E022303105F1F18F
:100350002330310549F02130310509F0ADCF42E1BC
:1003600050E083E291E010C0282F30E0833040F568
:10037000F901EE0FFF1FED5FFE4F8081918120504C
:100380003F4FF901408150E0009709F495CF9B0160
:100390004617570708F49A012115310549F0461709
:1003A000570730F441E0622F6F7370E0672B09F05C
:1003B00040E02115310579F4411509F495CF83CF3B
:1003C0008091EB0080628093EB0076CF4BE450E0AD
:1003D00088ED90E0D9CF5091E80050FFFCCFBC01F0
:1003E000605C7F4FFC01549101965093F1002150C5
:1003F000304019F086179707A9F75091E8005E770B
:100400005093E800D6CF0197F0F109F055CF0E9444
:1004100014018091EA008E608093EA008091EA00E6
:10042000817F8093EA0081E08093E9008091EB0076
:1004300081608093EB0081EC8093EC0082E18093FB
:10044000ED001092F00082E08093E9008091EB00D3
:1004500081608093EB0081E88093EC0096E39093B9
:10046000ED001092F00083E08093E9008091EB00B2
:1004700081608093EB0080E88093EC009093ED0026
:100480001092F00031CF0E9414018091EA008E603A
:100490008093EA008091EA00817F8093EA0081E006
:1004A0008093E9008091EB008E7F8093EB0082E0E7
:1004B0008093E9008091EB008E7F8093EB0083E0D6
:1004C0008093E9008091EB008E7F8093EB000CCF4E
:1004D0006730710509F0F0CE07CFFF91EF91BF9122
:1004E000AF919F918F917F916F915F914F913F91CC
:1004F0002F91FF90EF90DF90CF900F900FBE0F9055
:100500001F9018952FB7F89432E03093E90030919E
:10051000E80030FF03C0FC01892B29F42FBF0895A8
:1005200031969093F1009081911521F08091E8002F
:1005300085FDF6CF8091E8008072892B31F08091A3
:10054000E8008E778093E800E9CF8091E8008E770D
:100550008093E8008091E80080FFFCCFF0CF9FB748
:10056000F89422E02093E9002091E80020FF07C0E2
:100570008093F1008091E8008E778093E8009FBF20
:1005800008959FB7F89483E08093E9008091F2008A
:100590009FBF08952FB7F89483E08093E90080917E
:1005A000E80082FF0DC08091F1009091F20091115E
:1005B00005C09091E8009B779093E8002FBF0895C5
:1005C00080E0FCCF2FB7F89433E03093E90030910E
:1005D000E80032FD02C02FBF0895FC01680F07C07C
:1005E0008091E80085FF07C08091F1008193862FFC
:1005F0008E1B8230A8F710828091F2008111EBCF20
:100600008091E8008B778093E800E5CFF89481EE45
:1006100094E00197F1F700C000000E94F5000E94ED
:10062000FD00559A209A5D9888E19FE00FB6F894F6
:10063000A895809360000FBE909360007894A89571
:1006400087EA91E60197F1F700C00000189A0E942E
:10065000C1028115A1F360E18AE091E00E94E2020B
:0E0660008AE091E00E948202EACFF894FFCF78
:0A066E00041612D400BE00AC000018
:00000001FF
