:100000000C949B000C94C2000C94C2000C94C2008F
:100010000C94C2000C94C2000C94C2000C94C20058
:100020000C94C2000C94C2000C94C4000C942401E3
:100030000C94C2000C94C2000C94C2000C94C20038
:100040000C94C2000C94C2000C94C2000C94C20028
:100050000C94C2000C94C2000C94C2000C94C20018
:100060000C94C2000C94C2000C94C2000C94C20008
:100070000C94C2000C94C2000C94C2000C94C200F8
:100080000C94FC030C9436040C9470040C944D03F3
:100090000C94C2000C94C2000C94C2000C94C200D8
:1000A0000C94C2000C94C2000C94C20012034800CD
:1000B0006900620069007300630075007300160335
:1000C00048006F0072006E00650064004F0077000A
:1000D0006C005F000403090409024B00020100C028
:1000E00064080B0002020200000904000001020281
:1000F000000005240020010524010201042402005F
:1001000005240600010705810310001809040100F9
:10011000020A0000000705820240000007050302F2
:1001200040000012010002EF020140091207000026
:1001300001010200010011241FBECFEFDAE0DEBF93
:10014000CDBF80E820E030E00FB6F89480936100E6
:10015000209361000FBE11E0A0E0B1E0E2ECF9E015
:1001600002C005900D92A031B107D9F721E0A0E1BE
:10017000B1E001C01D92A132B207E1F70E94AA04CA
:100180000C94DF040C9400001F921FB61F921124E0
:100190008F938091E10083FF23C08091E100877FEE
:1001A0008093E1001092E9008091EA0081608093E1
:1001B000EA008091EA008E7F8093EA008091EB0054
:1001C0008E7F8093EB008091EB0081608093EB0049
:1001D0001092EC0082E38093ED008CE08093F000BD
:1001E0008F911F901FBE1F9018958AE682BF82E1F3
:1001F00089BD09B400FEFDCF08958091D7008160CC
:100200008093D7008091D80080688093D800809137
:10021000D80080618093D8008091D8008F7D809332
:10022000D8008091E0008E7F8093E00088E080938A
:10023000E20008958091E80080FFFCCF8091E80003
:100240008E778093E80008951F920F920FB60F9259
:100250001124CF92DF92EF92FF922F933F934F930F
:100260005F936F937F938F939F93AF93BF93EF931E
:10027000FF931092E9008091E80083FF3CC08091D9
:10028000F1008091F1009091F100E091F100309146
:10029000F1003091F1006091F1004091F100742F74
:1002A0003091E800377F3093E800803209F41FC1B5
:1002B00070F4292F3E2F863009F44CC0893009F4A0
:1002C000B0C0853051F08091EB0080620DC1825248
:1002D0008230C8F70E941A010EC09F779093E30006
:1002E0000E941A018091E80080FFFCCF8091E3001A
:1002F00080688093E3008091E80082FFFDC08091D8
:10030000F1009091F100C090F100EC2C6C01809113
:10031000F100F82E8091E8008B778093E8000E942E
:100320001A0180EBC81684E0D806E104F10409F054
:10033000E3C087E797E7809300089093010888E17E
:1003400098E00FB6F894A895809360000FBE909344
:100350006000FFCF8E2F90E082309105D1F0833086
:10036000910541F0019709F0AECF42E150E083E200
:1003700091E013C0822F90E02130F9F08230910596
:1003800009F1892B21F18091EB0080628093EB00D1
:100390009ACF4BE450E088ED90E0009709F493CFBA
:1003A0009B014617570708F49A012030320719F0CD
:1003B0004617570788F040E015C046E150E08EEB45
:1003C00090E0EBCF42E150E08CEA90E0E6CF44E0F1
:1003D00050E084ED90E0E1CF41E0622F6F7370E078
:1003E000672B49F72030320721F4403009F483CFDE
:1003F00071CF5091E80050FFFCCFBC01605C7F4F93
:10040000FC01549101965093F1002150304019F0B5
:1004100068177907A9F75091E8005E775093E800D4
:10042000E1CF21303040F0F109F04DCF0E941A01A8
:100430008091EA008E608093EA008091EA00817FDB
:100440008093EA0081E08093E9008091EB00816075
:100450008093EB0081EC8093EC0082E18093ED00CF
:100460001092F00082E08093E9008091EB008160BF
:100470008093EB0081E88093EC0096E39093ED008D
:100480001092F00083E08093E9008091EB0081609E
:100490008093EB0080E88093EC009093ED00109245
:1004A000F00029CF0E941A018091EA008E608093AB
:1004B000EA008091EA00817F8093EA0081E08093E6
:1004C000E9008091EB008E7F8093EB0082E08093C7
:1004D000E9008091EB008E7F8093EB0083E08093B6
:1004E000E9008091EB008E7F8093EB0004CF6730B2
:1004F000704009F0E8CEFFCEFF91EF91BF91AF9130
:100500009F918F917F916F915F914F913F912F912B
:10051000FF90EF90DF90CF900F900FBE0F901F9045
:1005200018952FB7F89432E03093E9003091E80045
:1005300030FF03C0FC01892B29F42FBF08953196A9
:100540009093F1009081903021F08091E80085FD3A
:10055000F6CF8091E8008072892B49F48091E80001
:100560008E778093E8008091E80080FFFCCF809137
:10057000E8008E778093E800E0CF9FB7F89422E000
:100580002093E9002091E80020FF07C08093F1004C
:100590008091E8008E778093E8009FBF08959FB711
:1005A000F89483E08093E9008091F2009FBF089562
:1005B0002FB7F89483E08093E9008091E80082FFF0
:1005C0000DC08091F1009091F200911105C09091C1
:1005D000E8009B779093E8002FBF089580E0FCCF60
:1005E0002FB7F89433E03093E9003091E80032FD02
:1005F00002C02FBF0895FC01680F07C08091E8007A
:1006000085FF07C08091F1008193862F8E1B823079
:10061000A8F710828091F2008111EBCF8091E80061
:100620008B778093E800E5CF82E0809390008AE1A9
:100630008093910081E08093710080E091E0892BAC
:1006400029F08091710082608093710080E090E0D9
:10065000892B29F08091710084608093710080E083
:1006600090E0892B29F0809171008860809371005F
:100670008FE097E2909397008093960080EE91E050
:10068000909399008093980090939B0080939A0098
:1006900090939D0080939C0008950F920FB60F9247
:1006A0001F9211242F933F938F939F93AF93BF93E8
:1006B000EF93FF93809110018F5F80931001E09181
:1006C0001001E37084E0E89FF0011124DF01A050E5
:1006D000BF4F8D919D911297892B09F1EE5FFE4FCF
:1006E00090819F700D90BC91A02D8C9121E001C054
:1006F000220F9A95EAF7822B8C93208122952F70F6
:1007000031813295307F322B832F218122952F70BA
:10071000922F880F991F9093990080939800E091F1
:100720001001E37084E0E89FF0011124DF01A05084
:10073000B0408D919D911297892B09F1EE5FFF4F8B
:1007400090819F700D90BC91A02D8C9121E001C0F3
:10075000220F9A95EAF7822B8C93208122952F7095
:1007600031813295307F322B832F218122952F705A
:10077000922F880F991F90939B0080939A00E0918D
:100780001001E37084E0E89FF0011124DF01A05024
:10079000B0408D919D911297892B09F1EE5FFF4F2B
:1007A00090819F700D90BC91A02D8C9121E001C093
:1007B000220F9A95EAF7822B8C93208122952F7035
:1007C00031813295307F322B832F218122952F70FA
:1007D000922F880F991F90939D0080939C00FF910A
:1007E000EF91BF91AF919F918F913F912F911F906A
:1007F0000F900FBE0F9018950F920FB60F921F9289
:1008000011242F933F938F939F93AF93BF93EF93B5
:10081000FF9380911001837024E0829FC001112416
:10082000FC01E050FF4F208131812030320789F0F8
:100830008E5F9E4FDC013C913F700190F081E02D76
:10084000208181E001C0880F3A95EAF780958223E4
:100850008083FF91EF91BF91AF919F918F913F91D5
:100860002F911F900F900FBE0F9018950F920FB6FB
:100870000F921F9211242F933F938F939F93AF93C7
:10088000BF93EF93FF9380911001837024E0829FC8
:10089000C0011124FC01E050F04020813181203062
:1008A000320789F08E5F9F4FDC013C913F700190D1
:1008B000F081E02D208181E001C0880F3A95EAF7B0
:1008C000809582238083FF91EF91BF91AF919F919B
:1008D0008F913F912F911F900F900FBE0F90189501
:1008E0000F920FB60F921F9211242F933F938F9365
:1008F0009F93AF93BF93EF93FF9380911001837009
:1009000024E0829FC0011124FC01E050F0402081CE
:1009100031812030320789F08E5F9F4FDC013C919E
:100920003F700190F081E02D208181E001C0880FAF
:100930003A95EAF7809582238083FF91EF91BF91EA
:10094000AF919F918F913F912F911F900F900FBE6C
:100950000F901895F8948FE19EE40197F1F700C08D
:1009600000000E94F5000E94FD000E9414036E9A90
:10097000559A209A5D9888E19FE00FB6F894A89563
:10098000809360000FBE909360007894A8958FEFDD
:1009900091EE24E0815090402040E1F700C000003B
:1009A000189A0E94CF02803089F360E181E191E0E2
:1009B0000E94F00281E191E00E949102E7CFF89459
:0209C000FFCF67
:1009C2002E00067800000000000000000000000079
:00000001FF
