:100000000C949B000C94AD000C94AD000C94AD00CE
:100010000C94AD000C94AD000C94AD000C94AD00AC
:100020000C94AD000C94AD000C94AF000C94110135
:100030000C94AD000C94AD000C94AD000C94AD008C
:100040000C94AD000C94AD000C94AD000C94AD007C
:100050000C94AD000C94AD000C94AD000C94AD006C
:100060000C94AD000C94AD000C94AD000C94AD005C
:100070000C94AD000C94AD000C94AD000C94AD004C
:100080000C94AD000C94AD000C94AD000C94AD003C
:100090000C94AD000C94AD000C94AD000C94AD002C
:1000A0000C94AD000C94AD000C94AD00120348000C
:1000B0006900620069007300630075007300160335
:1000C00048006F0072006E00650064004F0077000A
:1000D0006C005F000403090409024B00020102C026
:1000E00064080B000202020002090400000102027F
:1000F000000205240020010524010201042402005D
:1001000005240600010705810310001809040100F9
:10011000020A0000020705820240000007050302F0
:1001200040000012010002EF020140091207000026
:1001300001010200010011241FBECFEFDAE0DEBF93
:10014000CDBF21E0A0E0B1E001C01D92A031B20717
:10015000E1F70E94CC020C94FE020C9400001F9266
:100160001FB61F9211248F938091E10083FF25C059
:100170008091E100877F8093E1001092E9008091F7
:10018000EA0081608093EA008091EA008E7F80938C
:10019000EA008091EB008E7F8093EB008091EB0072
:1001A00081608093EB001092EC0082E38093ED007D
:1001B0008091F00088608093F0008F911F901FBEA7
:1001C0001F9018958AE682BF82E189BD09B400FEBE
:1001D000FDCF08958091D70081608093D7008091F2
:1001E000D80080688093D8008091D8008061809387
:1001F000D8008091D8008F7D8093D8008091E00056
:100200008E7F8093E00088E08093E20008958091E3
:10021000E80080FFFCCF8091E8008E778093E800B3
:1002200008951F920F920FB60F9211242F933F93B0
:100230004F935F936F937F938F939F93AF93BF93EE
:10024000EF93FF931092E9008091E80083FF39C09B
:100250008091F1005091F1004091F1008091F10006
:10026000242F382FC9012091F1002091F100209115
:10027000F1006091F100362F6091E800677760939C
:10028000E800563009F442C040F4503071F0553067
:1002900071F18091EB008062F9C0593009F49AC085
:1002A0005232B9F70E9407010CC08091E80080FF2C
:1002B000FCCF20303207B1F48091E8008E77809334
:1002C000E800FF91EF91BF91AF919F918F917F9146
:1002D0006F915F914F913F912F910F900FBE0F90B3
:1002E0001F901895215030401092F100E2CF4F77C7
:1002F0004093E3000E9407018091E80080FFFCCF5B
:100300008091E30080688093E300DBCF892F90E049
:1003100082309105B9F08330910541F0019709F0E1
:10032000B8CF62E170E083E291E010C04130F1F0BB
:10033000423009F1403021F18091EB0080628093DE
:10034000EB00A7CF6BE470E088ED90E0009709F434
:10035000A0CFAB012617370708F4A9014030540796
:1003600019F06217730788F020E015C066E170E0AD
:100370008EEB90E0EBCF62E170E08CEA90E0E6CFAC
:1003800064E070E084ED90E0E1CF21E0642F6F73D2
:1003900070E0672B49F74030540721F4203009F40E
:1003A00090CF80CF3091E80030FFFCCFBC01605C83
:1003B0007F4FFC01349101963093F1004150504041
:1003C00019F068177907A9F73091E8003E77309364
:1003D000E800E1CF0197C0F109F05BCF0E9407016F
:1003E0008091EA008E608093EA008091EA00817F2C
:1003F0008093EA0081E08093E9008091EB008160C6
:100400008093EB0081EC8093EC0082E18093ED001F
:1004100082E08093E9008091EB0081608093EB00A3
:1004200081E88093EC0092E39093ED0083E0809369
:10043000E9008091EB0081608093EB0080E880937D
:10044000EC009093ED003DCF0E9407018091EA00FF
:100450008E608093EA008091EA00817F8093EA00B9
:1004600081E08093E9008091EB008E7F8093EB0028
:1004700082E08093E9008091EB008E7F8093EB0017
:1004800083E08093E9008091EB008E7F8093EB0006
:1004900018CF2FB7F89432E03093E9003091E8009C
:1004A00030FF03C0FC01892B29F42FBF089531963A
:1004B0009093F1009081903021F08091E80085FDCB
:1004C000F6CF8091E8008072892B49F48091E80092
:1004D0008E778093E8008091E80080FFFCCF8091C8
:1004E000E8008E778093E800E0CF9FB7F89422E091
:1004F0002093E9002091E80020FF07C08093F100DD
:100500008091E8008E778093E8009FBF08959FB7A1
:10051000F89483E08093E9008091F2009FBF0895F2
:100520002FB7F89483E08093E9008091E80082FF80
:100530000DC08091F1009091F200911105C0909151
:10054000E8009B779093E8002FBF089580E0FCCFF0
:100550002FB7F89433E03093E9003091E80032FD92
:1005600002C02FBF0895FC01680F07C08091E8000A
:1005700085FF07C08091F1008193862F8E1B82300A
:10058000A8F710828091F2008111EBCF8091E800F2
:100590008B778093E800E5CFF8948FEF99EF20E018
:1005A000815090402040E1F700C000000E94E2002E
:1005B0000E94EA0088E19FE00FB6F894A895809326
:1005C00060000FBE909360007894A8958FEF91EE35
:1005D00024E0815090402040E1F700C00000189ACC
:1005E0000E948702803089F360E180E091E00E9400
:1005F000A80280E091E00E944902E7CFF894FFCF83
:00000001FF
