:100000000C949B000C94C2000C94C2000C94C2008F
:100010000C94C2000C94C2000C94C2000C94C20058
:100020000C94C2000C94C2000C94C4000C943901CE
:100030000C94C2000C94C2000C94C2000C94C20038
:100040000C94C2000C94C2000C94C2000C94C20028
:100050000C94C2000C94C2000C94C2000C94C20018
:100060000C94C2000C94C2000C94C2000C94C20008
:100070000C94C2000C948F030C94C2000C94C20028
:100080000C94C2000C94C2000C94C2000C94C200E8
:100090000C94C2000C94C2000C94C2000C94C200D8
:1000A0000C94C2000C94C2000C94C20012034800CD
:1000B0006900620069007300630075007300160335
:1000C00048006F0072006E00650064004F0077000A
:1000D0006C005F000403090409024B00020100C028
:1000E00064080B0002020200000904000001020281
:1000F000000005240020010524010201042402005F
:1001000005240600010705810310001809040100F9
:10011000020A0000000705820240000007050302F2
:1001200040000012010002EF020140091207000026
:1001300001010200010011241FBECFEFDAE0DEBF93
:10014000CDBF80E820E030E00FB6F89480936100E6
:10015000209361000FBE11E0A0E0B1E0EAECF9E00D
:1001600002C005900D92A831B107D9F721E0A8E1AE
:10017000B1E001C01D92AB33B207E1F70E942B043E
:100180000C94E3040C9400001F921FB61F921124DC
:100190008F938091E10083FF23C08091E100877FEE
:1001A0008093E1001092E9008091EA0081608093E1
:1001B000EA008091EA008E7F8093EA008091EB0054
:1001C0008E7F8093EB008091EB0081608093EB0049
:1001D0001092EC0082E38093ED008CE08093F000BD
:1001E0008091E10080FF11C08091E1008E7F8093BB
:1001F000E100109207018091EA008E608093EA008E
:100200008091EA00817F8093EA008F911F901FBE4A
:100210001F9018958AE682BF82E189BD09B400FE6D
:10022000FDCF08958091D70081608093D7008091A1
:10023000D80080688093D8008091D8008061809336
:10024000D8008091D8008F7D8093D8008091E00005
:100250008E7F8093E00089E08093E2000895809192
:10026000E80080FFFCCF8091E8008E778093E80063
:1002700008951F920F920FB60F9211242F933F9360
:100280004F935F936F937F938F939F93AF93BF939E
:10029000CF93EF93FF93C091E9001092E900809112
:1002A000E80083FFADC08091F1002091F100309112
:1002B000F100E091F1008091F1008091F1008091D6
:1002C000F1006091F100962F5091E800577F509314
:1002D000E800203209F45BC108F055C0432F5E2FBF
:1002E000263009F4C3C060F4203009F46BC0253017
:1002F00009F478C08091EB0080628093EB0080C0AD
:100300002930C1F74130504008F41CC199F70E94D0
:100310002F018091EA008E608093EA008091EA00CC
:10032000817F8093EA0081E08093E9008091EB0077
:1003300081608093EB0081EC8093EC0082E18093FC
:10034000ED001092F00082E08093E9008091EB00D4
:1003500081608093EB0081E88093EC0092E39093BE
:10036000ED001092F00083E08093E9008091EB00B3
:1003700081608093EB0080E88093EC009093ED0027
:100380001092F0003DC0223209F405C1233209F475
:10039000BDC0213209F0AECF079729F08091EB0064
:1003A00080628093EB008091E80080FFFCCFE0E06A
:1003B000F1E087E091E021912093F1008E179F07F3
:1003C000D1F706C02091E80020FFFCCF009731F460
:1003D0008091E8008E778093E80012C00197109218
:1003E000F100F4CF3F773093E3000E942F0180911A
:1003F000E80080FFFCCF8091E30080688093E300F9
:100400008091E80082FFCAC08091E80080FFFCCFA5
:10041000E0E0F1E08091F100819381E0E730F807BE
:10042000C9F78091E8008B778093E8000E942F0144
:100430008091000190910101A0910201B09103010E
:1004400010979440804B09F0A9C087E797E7809305
:1004500000089093010888E198E00FB6F894A895F9
:10046000809360000FBE90936000FFCF2E2F30E08E
:1004700022303105D9F02330310549F021303040A8
:1004800009F038CF62E170E023E231E013C0242F9D
:1004900030E0413001F12230310511F1232B29F1F7
:1004A0008091EB0080628093EB0024CF6BE470E0DE
:1004B00028ED30E02030320709F41CCFAC0168177A
:1004C000790708F4AB014030540719F06817790731
:1004D00088F080E015C066E170E02EEB30E0EACFF6
:1004E00062E170E02CEA30E0E5CF64E070E024EDFA
:1004F00030E0E0CF81E0642F6F7370E0672B49F745
:100500004030540731F4803009F47ACF0E942F0133
:1005100077CF9091E80090FFFCCFB901605C7F4FEE
:10052000F90194912F5F3F4F9093F100415050405B
:1005300019F026173707A1F79091E8009E7790935E
:10054000E800DECF0E942F0181E08093E9008091D6
:10055000EB008E7F8093EB0082E08093E900809136
:10056000EB008E7F8093EB0083E08093E900809125
:10057000EB008E7F8093EB008091EA008E60809389
:10058000EA008091EA00817F8093EA0039CF0797E3
:1005900009F0B0CE35CF30930701B8CFC093E90052
:1005A000FF91EF91CF91BF91AF919F918F917F91EB
:1005B0006F915F914F913F912F910F900FBE0F90D0
:1005C0001F901895A82FCB0120E030E040E882175B
:1005D0009307A40789F12091070120FF2DC032E085
:1005E0003093E9003091E80030FFFCCF20FF24C0B9
:1005F0003FB7F894FC012491A7FD2081203021F021
:100600004091E80045FD19C08091E8008072822B7E
:1006100029F48091E8008E778093E8003FBF8091B5
:10062000E80080FFFCCF8091070180FF05C080912A
:10063000E8008E778093E80008950196A11D20932D
:10064000F100D8CF9091070190FF13C022E02093D2
:10065000E9002091E80020FFFCCF90FF0AC09FB77F
:10066000F8948093F1008091E8008E778093E80001
:100670009FBF089590910701892F827091FF08C054
:100680009FB7F89483E08093E9008091F2009FBFC8
:1006900008958091070181FF18C02FB7F89483E077
:1006A0008093E9008091E80082FF0DC08091F10005
:1006B0009091F200911105C09091E8009B77909382
:1006C000E8002FBF089580E0FCCF80E008952091DE
:1006D000070121FF0AC02FB7F89433E03093E900F7
:1006E0003091E80032FD02C02FBF0895FC01680F71
:1006F00007C08091E80085FF07C08091F1008193D9
:10070000862F8E1B8230A8F710828091F200811113
:10071000EBCF8091E8008B778093E800E5CF1F92C4
:100720001FB61F9211242F933F934F935F936F93A4
:100730007F938F939F93EF93FF93E0913801F09114
:1007400039013097E1F04091780050917900952F70
:100750009F70792F942F9295907F20812F70922BEC
:100760009083842F82958F709181907F892B8183D4
:10077000872F8295807F91819F70892B81838091C3
:100780003A018F5F80933A01853010F010923A0160
:10079000E0913A01EE0FFF0BE85FFE4FE093380166
:1007A000F093390190917C0080818770907E892B35
:1007B00080937C00E0913801F091390180818F7045
:1007C0008830C0F080917B00806280937B008091B4
:1007D0007A00806480937A00FF91EF919F918F91CE
:1007E0007F916F915F914F913F912F911F901FBE0D
:1007F0001F90189580917B008F7DE7CF8DE88093C7
:100800007A0080E880937B0080E480937C00809174
:100810007C008F6180937C0080917A00806480935B
:100820007A00089580E88093800080E180938100C1
:1008300080E091E090938700809386008CE490E0C4
:100840009093890080938800259A8091810081602F
:10085000809381000895CDB7DEB728970FB6F8943E
:10086000DEBF0FBECDBFF8948FE19EE40197F1F794
:1008700000C000000E940A010E94120180B38F7024
:1008800080BB2198559A209A5D980E9412040E947C
:10089000FE0388E199E20FB6F894A8958093600072
:1008A0000FBE90936000789498E1A92E91E0B92E44
:1008B00082E191E0A0E83C0115014A2E85E191E03A
:1008C0006C01EA2EA8958FEF9AE623E081509040C4
:1008D0002040E1F700C00000189AF50180E2119273
:1008E0008A95E9F700E010E0F801EE0FFF1FE85FDE
:1008F000FE4F208122952F7081818295807F91818A
:100900004AE0BE016F5F7F4F822B92959F700E94DD
:10091000AE04CE010196BC0188E191E00E94A304DF
:10092000B30188E191E00E94A3040F5F1F4F0530DF
:100930001105D1F6B101842D0E94E202B6018E2D7F
:100940000E94E202BFCFFB01DC010D900020E9F71D
:10095000119701900D920020E1F70895BB274A30CE
:1009600031F4992322F4BDE2909581959F4F0C9428
:10097000BA04BB27FB015527AA27880F991FAA1F76
:10098000A41710F0A41B83955051B9F7A05DAA33AA
:1009900008F0A95DA193009779F7B111B193119275
:1009A000CB010C94D304DC01FC01672F71917723F8
:1009B000E1F7329704C07C916D9370836291AE171A
:0A09C000BF07C8F30895F894FFCFB5
:1009CA000096000000000800040005000D00060063
:0809DA0007002C20000D0A00AB
:00000001FF
