:100000000C949B000C94AD000C94AD000C94AD00CE
:100010000C94AD000C94AD000C94AD000C94AD00AC
:100020000C94AD000C94AD000C94AF000C94110135
:100030000C94AD000C94AD000C94AD000C94AD008C
:100040000C94AD000C94AD000C94AD000C94AD007C
:100050000C94AD000C94AD000C94AD000C94AD006C
:100060000C94AD000C94AD000C94AD000C94AD005C
:100070000C94AD000C94AD000C94AD000C94AD004C
:100080000C94AD000C94AD000C94AD000C94AD003C
:100090000C94AD000C94AD000C94AD000C94AD002C
:1000A0000C94AD000C94AD000C94AD00120348000C
:1000B0006900620069007300630075007300160335
:1000C00048006F0072006E00650064004F0077000A
:1000D0006C005F000403090409024B00020102C026
:1000E00064080B000202020002090400000102027F
:1000F000000205240020010524010201042402005D
:1001000005240600010705810310001809040100F9
:10011000020A0000020705820240000007050302F0
:1001200040000012010002EF020140091207000026
:1001300001010200010011241FBECFEFDAE0DEBF93
:10014000CDBF21E0A0E0B1E001C01D92A038B20710
:10015000E1F70E94AB020C94E1020C9400001F92A4
:100160001FB61F9211248F938091E10083FF25C059
:100170008091E100877F8093E1001092E9008091F7
:10018000EA0081608093EA008091EA008E7F80938C
:10019000EA008091EB008E7F8093EB008091EB0072
:1001A00081608093EB001092EC0082E38093ED007D
:1001B0008091F00088608093F0008F911F901FBEA7
:1001C0001F9018958AE682BF82E189BD09B400FEBE
:1001D000FDCF08958091D70081608093D7008091F2
:1001E000D80080688093D8008091D8008061809387
:1001F000D8008091D8008F7D8093D8008091E00056
:100200008E7F8093E00088E08093E20008958091E3
:10021000E80080FFFCCF8091E8008E778093E800B3
:1002200008951F920F920FB60F9211242F933F93B0
:100230004F935F936F937F938F939F93AF93BF93EE
:10024000EF93FF931092E9008091E80083FF2DC0A7
:100250008091F1003091F1002091F1008091F10046
:10026000422F582FCA014091F1004091F100609156
:10027000F100E091F1004091E80047774093E800F9
:10028000363021F1393009F484C0353049F52F7703
:100290002093E3000E9407018091E80080FFFCCFDB
:1002A0008091E30080688093E300FF91EF91BF911C
:1002B000AF919F918F917F916F915F914F913F91FE
:1002C0002F910F900FBE0F901F901895892F90E0DF
:1002D0008230910519F18330910531F0019719F1C0
:1002E0008091EB008062B1C0213011F1223029F100
:1002F00044E050E084ED90E02111F2CF009781F3CB
:100300007E2F9A016417750708F49B01203032078D
:1003100019F046175707B0F040E01AC04BE450E020
:1003200088ED90E0EBCF42E150E083E291E0E6CF50
:1003300046E150E08EEB90E0E1CF42E150E08CEA04
:1003400090E0DCCF41E0622F6F7370E0672B21F704
:100350002030320731F4403009F4A7CF0E94070162
:10036000A4CF5091E80050FFFCCFBC01605C7F4FF0
:10037000FC01549101965093F1002150304019F046
:1003800068177907A9F75091E8005E775093E80065
:10039000DFCF0197C0F109F0A3CF0E940701809140
:1003A000EA008E608093EA008091EA00817F80936A
:1003B000EA0081E08093E9008091EB008160809306
:1003C000EB0081EC8093EC0082E18093ED0082E011
:1003D0008093E9008091EB0081608093EB0081E8DD
:1003E0008093EC0092E39093ED0083E08093E9002A
:1003F0008091EB0081608093EB0080E88093EC00BB
:100400009093ED0052CF0E9407018091EA008E6028
:100410008093EA008091EA00817F8093EA0081E086
:100420008093E9008091EB008E7F8093EB0082E067
:100430008093E9008091EB008E7F8093EB0083E056
:100440008093E9008091EB008E7F8093EB002DCFAD
:100450002FB7F89432E03093E9003091E80030FF94
:1004600003C0FC01892B29F42FBF08953196909386
:10047000F1009081903021F08091E80085FDF6CF69
:100480008091E8008072892B49F48091E8008E7792
:100490008093E8008091E80080FFFCCF8091E80025
:1004A0008E778093E800E0CF9FB7F89422E0209306
:1004B000E9002091E80020FF07C08093F1008091BF
:1004C000E8008E778093E8009FBF08959FB7F89467
:1004D00083E08093E9008091F2009FBF08952FB7D9
:1004E000F89483E08093E9008091E80082FF0DC0DA
:1004F0008091F1009091F200911105C09091E80077
:100500009B779093E8002FBF089580E0FCCF2FB732
:10051000F89433E03093E9003091E80032FD02C0F6
:100520002FBF0895FC01680F07C08091E80085FF88
:1005300007C08091F1008193862F8E1B8230A8F72F
:1005400010828091F2008111EBCF8091E8008B77CF
:100550008093E800E5CFF8948FEF99EF20E0815089
:1005600090402040E1F700C00000559A209A289A58
:100570005D980E94E2000E94EA0088E19FE00FB6C9
:10058000F894A895809360000FBE909360007894D3
:10059000A8958FEF91EE24E0815090402040E1F744
:1005A00000C00000189A0E946602803089F360E85B
:1005B00080E091E00E94870280E091E00E942802A2
:0605C000E7CFF894FFCF25
:00000001FF
