:100000000C9456000C9473000C9473000C947300C1
:100010000C9473000C9473000C9473000C94730094
:100020000C9473000C9473000C9473000C94730084
:100030000C9473000C9473000C9473000C94730074
:100040000C9473000C9473000C9473000C94730064
:100050000C9473000C9475000C9473000C94730052
:100060000C9473000C9487000C9473000C94730030
:100070000C9473000C9473000C9473000C94730034
:100080000C9473000C9473000C9473000C94730024
:100090000C9473000C9473000C9473000C94730014
:1000A0000C9473000C9473000C94730011241FBE05
:1000B000CFEFDAE0DEBFCDBF11E0A0E0B1E0E4EDCC
:1000C000F5E002C005900D92A231B107D9F721E009
:1000D000A2E1B1E001C01D92AA33B207E1F70E948C
:1000E00022020C94E8020C9400008F938FB78F9338
:1000F0009F938091120190911301019690931301A7
:10010000809312019F918F918FBF8F9118951F92AD
:100110001FB61F9211242F938F939F93EF93FF93FA
:10012000809135012091340190E001968F719927DB
:1001300028171906D1F08091CE00E091350191E0A9
:100140009E0F90933501F0E0EC5EFE4F808380912E
:1001500035018F7180933501FF91EF919F918F91C0
:100160002F911F901FBE1F9018958091CE00F4CF45
:10017000FC018191811108C08AE08093CE008091BA
:10018000C80085FFFCCF08958093CE008091C80001
:1001900085FFFCCFEECFFC018191811511F061113B
:1001A00001C008958093CE008091C80085FFFCCFE8
:1001B0006150F2CF8093CE008091C80085FFFCCFC4
:1001C00008954F925F926F927F928F929F92AF921B
:1001D000BF92CF92DF92EF92FF920F931F93CF9334
:1001E000DF93CDB7DEB72B970FB6F894DEBF0FBE07
:1001F000CDBF6B017C01CE0101965C018BE0F50166
:1002000011928A95E9F7F7FE0BC08DE20E94DA00A1
:10021000F094E094D094C094C11CD11CE11CF11C5A
:1002200045018AE0482E512C612C712CC701B60182
:10023000A30192010E94C602605DF4016083082D53
:10024000FFEF8F1A9F0AD701C60169017A010A9749
:10025000A105B10558F70A19002E000C110BF50184
:10026000E00FF11F80810E94DA00015011090F3F59
:10027000B1F72B960FB6F894DEBF0FBECDBFDF915E
:10028000CF911F910F91FF90EF90DF90CF90BF9093
:10029000AF909F908F907F906F905F904F90089558
:1002A0004F925F926F927F928F929F92BF92CF9266
:1002B000DF92EF92FF920F931F93CF93DF93CDB70F
:1002C000DEB72B970FB6F894DEBF0FBECDBFB62EAC
:1002D000E72EF82E192FCE0101966C018BE0F60166
:1002E00011928A95E9F746018AE0482E512C612C3B
:1002F000712C6B2D7E2D8F2D912FA30192010E94C9
:10030000C602605DF4016083082DFFEF8F1A9F0A1B
:100310008B2D9E2DAF2DB12FB22EE32EF42E152F47
:100320000A97A105B10528F70C19002E000C110B36
:10033000F601E00FF11F80810E94DA0001501109DF
:100340000F3FB1F72B960FB6F894DEBF0FBECDBFAF
:10035000DF91CF911F910F91FF90EF90DF90CF90A1
:10036000BF909F908F907F906F905F904F90089577
:10037000209134019091350181E0291301C080E082
:100380000895A4E1B1E09096EC91909781E08E0FF2
:1003900090968C939097F0E0EC5EFE4F8081909663
:1003A0009C9190979F7190969C930895189A0895A8
:1003B000809138019091390180569E4F90938B0027
:1003C00080938A00089580917A00806480937A00F7
:1003D00080917A0086FDFCCF809178009091790021
:1003E000880F991F9093390180933801089594EAFA
:1003F0009093BC009091BC0097FFFCCF98E790933E
:10040000BB0094E89093BC009091BC0097FFFCCF98
:100410001092BB0094E89093BC009091BC0097FFB1
:10042000FCCF8093BB0084E88093BC008091BC002B
:1004300087FFFCCF84E98093BC008091BC0084FDE1
:10044000FCCF0895F894559A209A5D982FEF81EE8D
:1004500094E0215080409040E1F700C0000096B148
:1004600086B191FF1FC080FF1DC088E48093B80053
:100470008091B900887F8093B90085ED0E94F701D3
:1004800080E80E94F7018DE80E94F70184E10E9454
:10049000F7018EEA0E94F7018FEA0E94F70185EAD0
:1004A0000E94F70187E880937A0010927B0087E42E
:1004B00080937C0080917B008F7D80937B003FB791
:1004C000F89480EA8093800020E12093810080E20C
:1004D0009EE4909387008093860088EE93E090934B
:1004E00089008093880090938B0080938A0090937A
:1004F0008D0080938C0080918100826080938100C8
:1005000084B1806E84B93FBF1092CD002093CC009F
:1005100088E98093C90086E08093CA009FB7F89469
:1005200014BC15BC89EF87BD84B5826084BD82E0B0
:1005300085BB80936E0085B5836085BD9FBF789431
:100540008FB7F89420911201309113013093370145
:10055000209336018FBFC0E0D1E0809136019091A9
:1005600037012A813B81AC01421B530B2C813D8119
:100570004217530728F09B838A83E881F981099504
:10058000269621E0C231D20741F7DACFA1E21A2E36
:10059000AA1BBB1BFD010DC0AA1FBB1FEE1FFF1F27
:1005A000A217B307E407F50720F0A21BB30BE40B77
:1005B000F50B661F771F881F991F1A9469F76095BE
:1005C0007095809590959B01AC01BD01CF01089578
:0405D000F894FFCFCD
:1005D400D60100006400D80123003200E3016E005C
:0205E4003200E3
:00000001FF
