:100000000C9434000C9451000C9451000C94510049
:100010000C9451000C9451000C9451000C9451001C
:100020000C9451000C9451000C9451000C9451000C
:100030000C9451000C9451000C9453000C945100FA
:100040000C9451000C9451000C9451000C945100EC
:100050000C9451000C9451000C9451000C945100DC
:100060000C9451000C94510011241FBECFEFD8E026
:10007000DEBFCDBF11E0A0E0B1E0E6E3F4E002C0F6
:1000800005900D92A231B107D9F721E0A2E1B1E0CC
:1000900001C01D92A731B207E1F70E9497010C94AD
:1000A00019020C9400008F938FB78F939F938091C8
:1000B0001201909113010196909313018093120104
:1000C0009F918F918FBF8F9118952FB7F894809142
:1000D0001201909113012FBF0895FC0181918111AC
:1000E00008C08AE08093C6008091C00085FFFCCFE5
:1000F00008958093C6008091C00085FFFCCFEECFAD
:10010000FC01680F791F8081811519F0E617F70748
:1001100009F4089531968093C6008091C00085FF50
:10012000FCCFF1CF8093C6008091C00085FFFCCF4B
:1001300008954F925F926F927F928F929F92AF92AB
:10014000BF92CF92DF92EF92FF920F931F93CF93C4
:10015000DF93CDB7DEB72B970FB6F894DEBF0FBE97
:10016000CDBF6B017C01CE0101965C018BE0F501F6
:1001700011928A95E9F7F7FE0BC08DE20E9492007A
:10018000F094E094D094C094C11CD11CE11CF11CEB
:1001900045018AE0482E512C612C712CC701B60113
:1001A000A30192010E94F701605DF4016083082DB4
:1001B000FFEF8F1A9F0AD701C60169017A010A97DA
:1001C000A105B10558F70A19002E000C110BF50115
:1001D000E00FF11F80810E949200015011090F3F32
:1001E000B1F78AE02B960FB6F894DEBF0FBECDBFF5
:1001F000DF91CF911F910F91FF90EF90DF90CF9003
:10020000BF90AF909F908F907F906F905F904F9036
:100210000C9492004F925F926F927F928F929F9276
:10022000BF92CF92DF92EF92FF920F931F93CF93E3
:10023000DF93CDB7DEB72B970FB6F894DEBF0FBEB6
:10024000CDBFB62EE72EF82E192FCE0101966C01E8
:100250008BE0F60111928A95E9F746018AE0482E73
:10026000512C612C712C6B2D7E2D8F2D912FA30184
:1002700092010E94F701605DF4016083082DFFEF99
:100280008F1A9F0A8B2D9E2DAF2DB12FB22EE32EEC
:10029000F42E152F0A97A105B10528F70C19002E89
:1002A000000C110BF601E00FF11F80810E949200FB
:1002B000015011090F3FB1F78AE02B960FB6F89461
:1002C000DEBF0FBECDBFDF91CF911F910F91FF9089
:1002D000EF90DF90CF90BF909F908F907F906F9026
:1002E0005F904F900C9492008091C00087FD03C0F6
:1002F0008091C600089580E00895189A089582EECE
:1003000094E0909389008093880086ED96E0909326
:100310008B0080938A0008956091140181E0860F1C
:100320008093140170E080E090E00C940A01F8944E
:10033000209A4FB7F89480EA8093800090E19093E0
:10034000810020E23EE4309387002093860028EE6F
:1003500033E0309389002093880030938B00209302
:100360008A008091810082608093810084B18660E0
:1003700084B94FBF1092C5009093C40088E1809368
:10038000C10086E08093C2009FB7F89414BC15BCEE
:1003900089EF87BD84B5826084BD82E085BB809390
:1003A0006E0085B5836085BD9FBF78940E9465000F
:1003B0009093160180931501C0E0D1E08091150162
:1003C000909116012A813B81AC01421B530B2C8179
:1003D0003D814217530728F09B838A83E881F98186
:1003E0000995269681E0C231D80741F7DFCFA1E217
:1003F0001A2EAA1BBB1BFD010DC0AA1FBB1FEE1F9F
:10040000FF1FA217B307E407F50720F0A21BB30BE9
:10041000E40BF50B661F771F881F991F1A9469F765
:1004200060957095809590959B01AC01BD01CF01C1
:060430000895F894FFCFCF
:100436007D010000C8007F010000E8038C01000078
:02044600640050
:00000001FF
