:100000000C9434000C9446000C9446000C9446006A
:100010000C9446000C9446000C9446000C94460048
:100020000C9446000C9446000C9446000C94460038
:100030000C9446000C9446000C9448000C94460026
:100040000C9446000C9446000C945A000C94460004
:100050000C9446000C9446000C9446000C94460008
:100060000C9446000C94460011241FBECFEFD8E03C
:10007000DEBFCDBF21E0A0E0B1E001C01D92A432FF
:10008000B207E1F70E941E020C9487020C94000054
:100090008F938FB78F939F9380910001909101016F
:1000A000019690930101809300019F918F918FBFE2
:1000B0008F9118951F921FB61F9211242F938F9323
:1000C0009F93EF93FF93809123012091220190E071
:1000D000019628171906D1F08091C600E0912301FE
:1000E00091E09E0F90932301F0E0EE5FFE4F80833E
:1000F000809123018F7180932301FF91EF919F9154
:100100008F912F911F901FBE1F9018958091C60050
:10011000F4CFFC018191811108C08AE08093C60070
:100120008091C00085FFFCCF08958093C600809128
:10013000C00085FFFCCFEECFFC01680F791F8081E6
:10014000811519F0E617F70709F4089531968093A1
:10015000C6008091C00085FFFCCFF1CF8093C60020
:100160008091C00085FFFCCF08954F925F926F92FF
:100170007F928F929F92AF92BF92CF92DF92EF9237
:10018000FF920F931F93CF93DF93CDB7DEB72B97DB
:100190000FB6F894DEBF0FBECDBF6B017C01CE0160
:1001A00001965C018BE0F50111928A95E9F7F7FE63
:1001B0000BC08DE20E94AE00F094E094D094C09405
:1001C000C11CD11CE11CF11C45018AE0482E512CB8
:1001D000612C712CC701B601A30192010E944B0250
:1001E000605DF4016083082DFFEF8F1A9F0AD7012D
:1001F000C60169017A010A97A105B10558F70A19E4
:10020000002E000C110BF501E00FF11F80810E9400
:10021000AE00015011090F3FB1F72B960FB6F894BD
:10022000DEBF0FBECDBFDF91CF911F910F91FF9029
:10023000EF90DF90CF90BF90AF909F908F907F9086
:100240006F905F904F9008954F925F926F927F9260
:100250008F929F92BF92CF92DF92EF92FF920F9375
:100260001F93CF93DF93CDB7DEB72B970FB6F894DC
:10027000DEBF0FBECDBFB62EE72EF82E192FCE0152
:1002800001966C018BE0F60111928A95E9F746011F
:100290008AE0482E512C612C712C6B2D7E2D8F2DD8
:1002A000912FA30192010E944B02605DF4016083D3
:1002B000082DFFEF8F1A9F0A8B2D9E2DAF2DB12F8A
:1002C000B22EE32EF42E152F0A97A105B10528F7BB
:1002D0000C19002E000C110BF601E00FF11F8081AC
:1002E0000E94AE00015011090F3FB1F72B960FB6D7
:1002F000F894DEBF0FBECDBFDF91CF911F910F915C
:10030000FF90EF90DF90CF90BF909F908F907F9065
:100310006F905F904F90089520912201909123015A
:1003200081E0291301C080E00895A2E0B1E0909639
:10033000EC91909781E08E0F90968C939097F0E0DF
:10034000EE5FFE4F808190969C9190979F71909662
:100350009C930895860F971F0895861B970B089509
:100360004F925F926F927F928F929F92AF92BF92C5
:10037000CF92DF92EF92FF920F931F93CF93DF9371
:10038000FC01EB012C0197FF04C044245524481ABA
:10039000590A052C000C660877084E01D7FF04C0E7
:1003A000882499248C1A9D0A092C000CAA08BB08E1
:1003B000C12CD12C760181149104A104B10429F53A
:1003C000BB27AF2D9E2D8D2DEC27FD27F7FF0CC0F1
:1003D0004EEF5FEF6FEF7FEF8A019B01081B190B58
:1003E0002A0B3B0BD901C801DF91CF911F910F91CF
:1003F000FF90EF90DF90CF90BF90AF909F908F9045
:100400007F906F905F904F90089580FA2227332756
:10041000A90120F9C301B2010E943B02C60ED71EFA
:10042000E81EF91E440C551C661C771CB694A79454
:1004300097948794C0CF860F971F08951092C50098
:1004400080E18093C40088E98093C10086E08093B6
:10045000C20060E072E080E891E00E94B0016C01AF
:10046000990FEE08FF08C701B6010E94B5008AE0A7
:100470000E94AE00F8CFDB018F939F930E946D0224
:10048000BF91AF91A29F800D911DA39F900DB29F30
:10049000900D11240895A1E21A2EAA1BBB1BFD0189
:1004A0000DC0AA1FBB1FEE1FFF1FA217B307E40753
:1004B000F50720F0A21BB30BE40BF50B661F771FAB
:1004C000881F991F1A9469F760957095809590958B
:1004D0009B01AC01BD01CF0108950E947802A59F48
:1004E000900DB49F900DA49F800D911D112408952F
:1004F000A29FB001B39FC001A39F700D811D112465
:10050000911DB29F700D811D1124911D0895F894C5
:02051000FFCF1B
:00000001FF
