:100000000C9434000C9451000C9451000C94510049
:100010000C9451000C9451000C9451000C9451001C
:100020000C9451000C9451000C9451000C9451000C
:100030000C9451000C9451000C9453000C945100FA
:100040000C9451000C9451000C9465000C945100D8
:100050000C9451000C9451000C9451000C945100DC
:100060000C9451000C94510011241FBECFEFD8E026
:10007000DEBFCDBF11E0A0E0B1E0EEE5F5E002C0EB
:1000800005900D92A231B107D9F721E0A2E1B1E0CC
:1000900001C01D92A833B207E1F70E94EC010C9455
:1000A000AD020C9400008F938FB78F939F93809134
:1000B0001201909113010196909313018093120104
:1000C0009F918F918FBF8F9118951F921FB61F928E
:1000D00011242F938F939F93EF93FF93809135017A
:1000E0002091340190E001968F7199272817190605
:1000F000D1F08091C600E091350191E09E0F909380
:100100003501F0E0EC5EFE4F8083809135018F7108
:1001100080933501FF91EF919F918F912F911F90C7
:100120001FBE1F9018958091C600F4CFFC018191ED
:10013000811108C08AE08093C6008091C00085FFCD
:10014000FCCF08958093C6008091C00085FFFCCF4E
:10015000EECFFC018191811511F0611101C008956C
:100160008093C6008091C00085FFFCCF6150F2CF24
:100170008093C6008091C00085FFFCCF08954F9208
:100180005F926F927F928F929F92AF92BF92CF9227
:10019000DF92EF92FF920F931F93CF93DF93CDB730
:1001A000DEB72B970FB6F894DEBF0FBECDBF6B0145
:1001B0007C01CE0101965C018BE0F50111928A95DC
:1001C000E9F7F7FE0BC08DE20E94B800F094E094CE
:1001D000D094C094C11CD11CE11CF11C45018AE0E3
:1001E000482E512C612C712CC701B601A30192013C
:1001F0000E948B02605DF4016083082DFFEF8F1A6F
:100200009F0AD701C60169017A010A97A105B105C4
:1002100058F70A19002E000C110BF501E00FF11F21
:1002200080810E94B800015011090F3FB1F72B9651
:100230000FB6F894DEBF0FBECDBFDF91CF911F91F7
:100240000F91FF90EF90DF90CF90BF90AF909F9075
:100250008F907F906F905F904F9008954F925F9234
:100260006F927F928F929F92BF92CF92DF92EF9286
:10027000FF920F931F93CF93DF93CDB7DEB72B97EA
:100280000FB6F894DEBF0FBECDBFB62EE72EF82E08
:10029000192FCE0101966C018BE0F60111928A951F
:1002A000E9F746018AE0482E512C612C712C6B2D08
:1002B0007E2D8F2D912FA30192010E948B02605DF4
:1002C000F4016083082DFFEF8F1A9F0A8B2D9E2D5E
:1002D000AF2DB12FB22EE32EF42E152F0A97A105C4
:1002E000B10528F70C19002E000C110BF601E00FD8
:1002F000F11F80810E94B800015011090F3FB1F732
:100300002B960FB6F894DEBF0FBECDBFDF91CF9115
:100310001F910F91FF90EF90DF90CF90BF909F9033
:100320008F907F906F905F904F900895209134014F
:100330009091350181E0291301C080E00895A4E186
:10034000B1E09096EC91909781E08E0F90968C930F
:100350009097F0E0EC5EFE4F808190969C91909794
:100360009F7190969C930895189A089508950E94FD
:100370009601811101C008950E949F010E94B8005A
:10038000F6CF94EA9093BC009091BC0097FFFCCF0D
:1003900098E79093BB0094E89093BC009091BC00C8
:1003A00097FFFCCF1092BB0094E89093BC00909113
:1003B000BC0097FFFCCF8093BB0084E88093BC0017
:1003C0008091BC0087FFFCCF84E98093BC008091C2
:1003D000BC0084FDFCCF0895F8942FEF81EE94E0EB
:1003E000215080409040E1F700C0000096B186B1F6
:1003F00095FF58C084FF56C088E48093B800809170
:10040000B900887F8093B9008EEA0E94C10185ED12
:100410000E94C10180E80E94C10188EA0E94C101D6
:100420008FE30E94C10183ED0E94C10180E00E9420
:10043000C10180E40E94C1018DE80E94C10184E1F4
:100440000E94C10180E20E94C10180E00E94C101BE
:1004500081EA0E94C10188EC0E94C1018AED0E94DC
:10046000C10182E10E94C10181E80E94C1018FECBB
:100470000E94C10189ED0E94C10181EF0E94C1016A
:100480008BED0E94C10180E40E94C10184EA0E94B8
:10049000C10186EA0E94C1018FEA0E94C10185EA7A
:1004A0000E94C101209A9FB7F89414BC15BC89EF33
:1004B00087BD84B5826084BD82E085BB80936E0079
:1004C00085B5836085BD9FBF78948FB7F8942091E0
:1004D00012013091130130933701209336018FBF01
:1004E000C0E0D1E080913601909137012A813B81B3
:1004F000AC01421B530B2C813D814217530728F05E
:100500009B838A83E881F9810995269621E0C2318F
:10051000D20741F7DACFA1E21A2EAA1BBB1BFD01BD
:100520000DC0AA1FBB1FEE1FFF1FA217B307E407D2
:10053000F50720F0A21BB30BE40BF50B661F771F2A
:10054000881F991F1A9469F760957095809590950A
:0E0550009B01AC01BD01CF010895F894FFCFCF
:10055E00B4010000C800B601F401E803B701E803D6
:02056E00E803A0
:00000001FF
