:100000000C9456000C9473000C9473000C947300C1
:100010000C9473000C9473000C9473000C94730094
:100020000C9473000C9473000C94E8010C9413026C
:100030000C9473000C9473000C9473000C94730074
:100040000C9473000C9473000C9473000C94730064
:100050000C9473000C9475000C9473000C94730052
:100060000C9473000C9487000C9473000C94730030
:100070000C9473000C9473000C9473000C94730034
:100080000C9473000C9473000C9473000C94730024
:100090000C9473000C9473000C9473000C94730014
:1000A0000C9473000C9473000C94730011241FBE05
:1000B000CFEFDAE0DEBFCDBF11E0A0E0B1E0E0E1DC
:1000C000F6E002C005900D92A231B107D9F721E008
:1000D000A2E1B1E001C01D92A633B207E1F70E9490
:1000E000A6020C9406030C9400008F938FB78F9395
:1000F0009F938091120190911301019690931301A7
:10010000809312019F918F918FBF8F9118951F92AD
:100110001FB61F9211242F938F939F93EF93FF93FA
:10012000809135012091340190E001968F719927DB
:1001300028171906D1F08091CE00E091350191E0A9
:100140009E0F90933501F0E0EC5EFE4F808380912E
:1001500035018F7180933501FF91EF919F918F91C0
:100160002F911F901FBE1F9018958091CE00F4CF45
:10017000FC018191811108C08AE08093CE008091BA
:10018000C80085FFFCCF08958093CE008091C80001
:1001900085FFFCCFEECFFC018191811511F061113B
:1001A00001C008958093CE008091C80085FFFCCFE8
:1001B0006150F2CF8093CE008091C80085FFFCCFC4
:1001C00008954F925F926F927F928F929F92AF921B
:1001D000BF92CF92DF92EF92FF920F931F93CF9334
:1001E000DF93CDB7DEB72B970FB6F894DEBF0FBE07
:1001F000CDBF6B017C01CE0101965C018BE0F50166
:1002000011928A95E9F7F7FE0BC08DE20E94DA00A1
:10021000F094E094D094C094C11CD11CE11CF11C5A
:1002200045018AE0482E512C612C712CC701B60182
:10023000A30192010E94E402605DF4016083082D35
:10024000FFEF8F1A9F0AD701C60169017A010A9749
:10025000A105B10558F70A19002E000C110BF50184
:10026000E00FF11F80810E94DA00015011090F3F59
:10027000B1F72B960FB6F894DEBF0FBECDBFDF915E
:10028000CF911F910F91FF90EF90DF90CF90BF9093
:10029000AF909F908F907F906F905F904F90089558
:1002A0004F925F926F927F928F929F92BF92CF9266
:1002B000DF92EF92FF920F931F93CF93DF93CDB70F
:1002C000DEB72B970FB6F894DEBF0FBECDBFB62EAC
:1002D000E72EF82E192FCE0101966C018BE0F60166
:1002E00011928A95E9F746018AE0482E512C612C3B
:1002F000712C6B2D7E2D8F2D912FA30192010E94C9
:10030000E402605DF4016083082DFFEF8F1A9F0AFD
:100310008B2D9E2DAF2DB12FB22EE32EF42E152F47
:100320000A97A105B10528F70C19002E000C110B36
:10033000F601E00FF11F80810E94DA0001501109DF
:100340000F3FB1F72B960FB6F894DEBF0FBECDBFAF
:10035000DF91CF911F910F91FF90EF90DF90CF90A1
:10036000BF909F908F907F906F905F904F90089577
:10037000209134019091350181E0291301C080E082
:100380000895A4E1B1E09096EC91909781E08E0FF2
:1003900090968C939097F0E0EC5EFE4F8081909663
:1003A0009C9190979F7190969C9308951092E9006C
:1003B000EBEEF0E08081816080831092EC0082E3BC
:1003C0008093ED00E0EFF0E0808188608083089505
:1003D0001F920F920FB60F9211242F933F934F93BA
:1003E0005F936F937F938F939F93AF93BF93EF939D
:1003F000FF938091E10083FF05C088E08093E100D6
:100400000E94D601FF91EF91BF91AF919F918F9183
:100410007F916F915F914F913F912F910F900FBE00
:100420000F901F9018951F921FB61F9211242F93A3
:100430003F938F939F93EF93FF931092E9008091E6
:10044000E80083FF2CC08091F1003091F100809191
:10045000F1009091F1002091F1002091F1002091A4
:10046000F1002091F1002091E800277F2093E8001F
:100470003530F9F48F778093E3008091E80080FFB6
:10048000FCCF8091E8008E7F8093E8008091E800A7
:1004900080FFFCCF8091E30080688093E300FF91B0
:1004A000EF919F918F913F912F911F901FBE1F90B1
:1004B00018953630A1F7913091F7E0E0F1E08191A5
:1004C0008093F10081E0E131F807C9F78091E800FD
:1004D00080FFFCCF8091E8008E7F8093E8008091C0
:1004E000E80080FFFCCFDBCFCF93DF93EAEEF0E0B4
:1004F0008FE78083108289EE90E021E0DC012C936D
:10050000EBEEF0E0208121602083CCEED0E021EC06
:1005100028834DEE50E022E1DA012C9322E0DC0149
:100520002C9320812160208321E8288322E3DA01B3
:100530002C9333E0DC013C9380818160808380E8F0
:100540008883FA012083DF91CF910895F894559A1A
:10055000209A289A5D9A2FEF83ED90E321508040F6
:100560009040E1F700C000008AE482BF82E189BDCB
:1005700009B400FEFDCF81E08093D7008091E000B8
:100580008E7F8093E00080E88093D8008091E20025
:1005900088608093E2000E94D6010E9474022FEFCF
:1005A00081EE94E0215080409040E1F700C00000CF
:1005B0007894189A2FEF89E698E121508040904076
:1005C000E1F700C00000F5CFA1E21A2EAA1BBB1B69
:1005D000FD010DC0AA1FBB1FEE1FFF1FA217B3070F
:1005E000E407F50720F0A21BB30BE40BF50B661F25
:1005F000771F881F991F1A9469F7609570958095E9
:1006000090959B01AC01BD01CF010895F894FFCFF7
:100610001201011002020003EB612401000000003E
:020620000100D7
:00000001FF
