:100000000C9434000C9446000C9446000C94480068
:100010000C9446000C9446000C9446000C94460048
:100020000C9446000C9446000C9446000C94460038
:100030000C9446000C9446000C9446000C94460028
:100040000C9446000C9446000C9446000C94460018
:100050000C9446000C9446000C9446000C94460008
:100060000C9446000C94460011241FBECFEFD8E03C
:10007000DEBFCDBF21E0A0E0B1E001C01D92A23003
:10008000B207E1F70E9469000C948E000C94000006
:100090008F938FB78F93199B0BC08091000181FDC7
:1000A00007C01A9B12C0809101018F5F80930101EC
:1000B0001B9904C08091000183FD1C9A83B1809339
:1000C00000018F918FBF8F91189580910101815010
:1000D000EDCFF894809168008160809368008AE099
:1000E00080936B00209A249A88E19FE00FB6F894E1
:1000F000A895809360000FBE90936000789491E083
:10010000A8952FEF39E688E1215030408040E1F793
:1001100000C0000085B1892785B9F2CFF894FFCFE0
:00000001FF
